{
  "address": "0x30f7F03Dc5d672c300309957aE8e9E7bCC4776c0",
  "abi": [
    {
      "inputs": [
        {
          "internalType": "address",
          "name": "_aaveV3Pool",
          "type": "address"
        },
        {
          "internalType": "address",
          "name": "_wETh",
          "type": "address"
        },
        {
          "internalType": "address",
          "name": "_ethGateway",
          "type": "address"
        },
        {
          "internalType": "address",
          "name": "_aaveRewardController",
          "type": "address"
        },
        {
          "internalType": "address[]",
          "name": "_supportEarnTokens",
          "type": "address[]"
        }
      ],
      "stateMutability": "nonpayable",
      "type": "constructor"
    },
    {
      "inputs": [],
      "name": "aaveRewardController",
      "outputs": [
        {
          "internalType": "address",
          "name": "",
          "type": "address"
        }
      ],
      "stateMutability": "view",
      "type": "function"
    },
    {
      "inputs": [],
      "name": "aaveV3Pool",
      "outputs": [
        {
          "internalType": "address",
          "name": "",
          "type": "address"
        }
      ],
      "stateMutability": "view",
      "type": "function"
    },
    {
      "inputs": [
        {
          "internalType": "address",
          "name": "user",
          "type": "address"
        },
        {
          "internalType": "address",
          "name": "token",
          "type": "address"
        }
      ],
      "name": "claimInterest",
      "outputs": [],
      "stateMutability": "nonpayable",
      "type": "function"
    },
    {
      "inputs": [
        {
          "internalType": "address",
          "name": "user",
          "type": "address"
        },
        {
          "internalType": "address",
          "name": "token",
          "type": "address"
        }
      ],
      "name": "claimReward",
      "outputs": [],
      "stateMutability": "nonpayable",
      "type": "function"
    },
    {
      "inputs": [],
      "name": "ethGateway",
      "outputs": [
        {
          "internalType": "address",
          "name": "",
          "type": "address"
        }
      ],
      "stateMutability": "view",
      "type": "function"
    },
    {
      "inputs": [
        {
          "internalType": "address",
          "name": "token",
          "type": "address"
        }
      ],
      "name": "getInterest",
      "outputs": [
        {
          "internalType": "uint256",
          "name": "interest",
          "type": "uint256"
        }
      ],
      "stateMutability": "view",
      "type": "function"
    },
    {
      "inputs": [
        {
          "internalType": "address",
          "name": "pair",
          "type": "address"
        }
      ],
      "name": "getPairBanlance",
      "outputs": [
        {
          "internalType": "uint256",
          "name": "balance0",
          "type": "uint256"
        },
        {
          "internalType": "uint256",
          "name": "balance1",
          "type": "uint256"
        }
      ],
      "stateMutability": "view",
      "type": "function"
    },
    {
      "inputs": [
        {
          "internalType": "address",
          "name": "user",
          "type": "address"
        },
        {
          "internalType": "address",
          "name": "pair",
          "type": "address"
        },
        {
          "internalType": "uint256",
          "name": "amount0",
          "type": "uint256"
        },
        {
          "internalType": "uint256",
          "name": "amount1",
          "type": "uint256"
        }
      ],
      "name": "onBurn",
      "outputs": [],
      "stateMutability": "nonpayable",
      "type": "function"
    },
    {
      "inputs": [
        {
          "internalType": "address",
          "name": "user",
          "type": "address"
        },
        {
          "internalType": "address",
          "name": "pair",
          "type": "address"
        },
        {
          "internalType": "uint256",
          "name": "amount0",
          "type": "uint256"
        },
        {
          "internalType": "uint256",
          "name": "amount1",
          "type": "uint256"
        }
      ],
      "name": "onMint",
      "outputs": [
        {
          "internalType": "uint256",
          "name": "balance0",
          "type": "uint256"
        },
        {
          "internalType": "uint256",
          "name": "balance1",
          "type": "uint256"
        }
      ],
      "stateMutability": "nonpayable",
      "type": "function"
    },
    {
      "inputs": [
        {
          "internalType": "address",
          "name": "pair",
          "type": "address"
        },
        {
          "internalType": "address",
          "name": "from",
          "type": "address"
        },
        {
          "internalType": "address",
          "name": "to",
          "type": "address"
        },
        {
          "internalType": "uint256",
          "name": "amount",
          "type": "uint256"
        }
      ],
      "name": "onTransfer",
      "outputs": [],
      "stateMutability": "nonpayable",
      "type": "function"
    },
    {
      "inputs": [
        {
          "internalType": "address",
          "name": "pair",
          "type": "address"
        },
        {
          "internalType": "address",
          "name": "token",
          "type": "address"
        },
        {
          "internalType": "address",
          "name": "from",
          "type": "address"
        },
        {
          "internalType": "uint256",
          "name": "value",
          "type": "uint256"
        }
      ],
      "name": "safeTransferFrom",
      "outputs": [],
      "stateMutability": "nonpayable",
      "type": "function"
    },
    {
      "inputs": [
        {
          "internalType": "address",
          "name": "pair",
          "type": "address"
        },
        {
          "internalType": "address",
          "name": "token",
          "type": "address"
        },
        {
          "internalType": "address",
          "name": "to",
          "type": "address"
        },
        {
          "internalType": "uint256",
          "name": "value",
          "type": "uint256"
        }
      ],
      "name": "safeTransferTo",
      "outputs": [],
      "stateMutability": "nonpayable",
      "type": "function"
    },
    {
      "inputs": [
        {
          "internalType": "address",
          "name": "",
          "type": "address"
        }
      ],
      "name": "supportEarnTokens",
      "outputs": [
        {
          "internalType": "bool",
          "name": "",
          "type": "bool"
        }
      ],
      "stateMutability": "view",
      "type": "function"
    },
    {
      "inputs": [],
      "name": "wETH",
      "outputs": [
        {
          "internalType": "address",
          "name": "",
          "type": "address"
        }
      ],
      "stateMutability": "view",
      "type": "function"
    },
    {
      "stateMutability": "payable",
      "type": "receive"
    }
  ],
  "transactionHash": "0xe412223f1c5a8e2a7e9a5aad3d51f460f503c54a401d0b61b471f98bb96e3cb6",
  "args": [
    "0x87870Bca3F3fD6335C3F4ce8392D69350B4fA4E2",
    "0x766beBf2726981dC68edC805a614ed9b17243b0B",
    "0x893411580e590D62dDBca8a703d61Cc4A8c7b2b9",
    "0x8164Cc65827dcFe994AB23944CBC90e0aa80bFcb",
    [
      "0x766beBf2726981dC68edC805a614ed9b17243b0B",
      "0xA0b86991c6218b36c1d19D4a2e9Eb0cE3606eB48",
      "0x2260FAC5E5542a773Aa44fBCfeDf7C193bc2C599"
    ]
  ],
  "numDeployments": 1,
  "solcInputHash": "4af321c9d6caa3e72e2704e97c6e9ee1",
  "bytecode": "0x6101006040523480156200001257600080fd5b50604051620034843803806200348483398101604081905262000035916200039e565b6001600160a01b0380861660805284811660a05283811660c052821660e05260005b815181101562000300576001600260008484815181106200007c576200007c620004a5565b60200260200101516001600160a01b03166001600160a01b0316815260200190815260200160002060006101000a81548160ff02191690831515021790555060a0516001600160a01b0316828281518110620000dc57620000dc620004a5565b60200260200101516001600160a01b031603620001ea576080516040516335ea6a7560e01b815273c02aaa39b223fe8d0a0e5c4f27ead9083c756cc260048201526001600160a01b03909116906335ea6a75906024016101e060405180830381865afa15801562000151573d6000803e3d6000fd5b505050506040513d601f19601f8201168201806040525081019062000177919062000541565b610100015160036000848481518110620001955762000195620004a5565b60200260200101516001600160a01b03166001600160a01b0316815260200190815260200160002060000160006101000a8154816001600160a01b0302191690836001600160a01b03160217905550620002f7565b6080516001600160a01b03166335ea6a75838381518110620002105762000210620004a5565b60200260200101516040518263ffffffff1660e01b81526004016200024491906001600160a01b0391909116815260200190565b6101e060405180830381865afa15801562000263573d6000803e3d6000fd5b505050506040513d601f19601f8201168201806040525081019062000289919062000541565b610100015160036000848481518110620002a757620002a7620004a5565b60200260200101516001600160a01b03166001600160a01b0316815260200190815260200160002060000160006101000a8154816001600160a01b0302191690836001600160a01b031602179055505b60010162000057565b50505050505062000685565b80516001600160a01b03811681146200032457600080fd5b919050565b634e487b7160e01b600052604160045260246000fd5b6040516101e081016001600160401b038111828210171562000365576200036562000329565b60405290565b604051601f8201601f191681016001600160401b038111828210171562000396576200039662000329565b604052919050565b600080600080600060a08688031215620003b757600080fd5b620003c2866200030c565b94506020620003d38188016200030c565b9450620003e3604088016200030c565b9350620003f3606088016200030c565b60808801519093506001600160401b03808211156200041157600080fd5b818901915089601f8301126200042657600080fd5b8151818111156200043b576200043b62000329565b8060051b91506200044e8483016200036b565b818152918301840191848101908c8411156200046957600080fd5b938501935b83851015620004925762000482856200030c565b825293850193908501906200046e565b8096505050505050509295509295909350565b634e487b7160e01b600052603260045260246000fd5b600060208284031215620004ce57600080fd5b604051602081016001600160401b0381118282101715620004f357620004f362000329565b6040529151825250919050565b80516001600160801b03811681146200032457600080fd5b805164ffffffffff811681146200032457600080fd5b805161ffff811681146200032457600080fd5b60006101e082840312156200055557600080fd5b6200055f6200033f565b6200056b8484620004bb565b81526200057b6020840162000500565b60208201526200058e6040840162000500565b6040820152620005a16060840162000500565b6060820152620005b46080840162000500565b6080820152620005c760a0840162000500565b60a0820152620005da60c0840162000518565b60c0820152620005ed60e084016200052e565b60e0820152610100620006028185016200030c565b90820152610120620006168482016200030c565b908201526101406200062a8482016200030c565b908201526101606200063e8482016200030c565b908201526101806200065284820162000500565b908201526101a06200066684820162000500565b908201526101c06200067a84820162000500565b908201529392505050565b60805160a05160c05160e051612d4062000744600039600081816101a901528181610b7c01528181611396015261181901526000818161022901528181610f5001528181612051015261218301526000818161036e01528181610e5501528181610ea201528181612016015261228e0152600081816101f501528181610f1b01528181610fcc0152818161107c015281816120fb0152818161221b0152818161231f015281816123be0152818161244801526124f50152612d406000f3fe6080604052600436106100e15760003560e01c80638f2c01f81161007f578063bf4d6b0511610059578063bf4d6b05146102cb578063d9fc4b61146102eb578063e8929f6f1461030b578063f24286211461035c57600080fd5b80638f2c01f81461024b5780639bfe656e1461026b578063ba437c68146102ab57600080fd5b80637aaa3470116100bb5780637aaa34701461016957806381717c1a1461019757806386a06ff0146101e35780638c00ce731461021757600080fd5b80630987df03146100ed5780633f812ccc1461010f5780634953c7821461014957600080fd5b366100e857005b600080fd5b3480156100f957600080fd5b5061010d6101083660046126de565b610390565b005b34801561011b57600080fd5b5061012f61012a36600461272f565b610599565b604080519283526020830191909152015b60405180910390f35b34801561015557600080fd5b5061010d610164366004612775565b610739565b34801561017557600080fd5b506101896101843660046127ae565b610747565b604051908152602001610140565b3480156101a357600080fd5b506101cb7f000000000000000000000000000000000000000000000000000000000000000081565b6040516001600160a01b039091168152602001610140565b3480156101ef57600080fd5b506101cb7f000000000000000000000000000000000000000000000000000000000000000081565b34801561022357600080fd5b506101cb7f000000000000000000000000000000000000000000000000000000000000000081565b34801561025757600080fd5b5061010d61026636600461272f565b610758565b34801561027757600080fd5b5061029b6102863660046127ae565b60026020526000908152604090205460ff1681565b6040519015158152602001610140565b3480156102b757600080fd5b5061010d6102c6366004612775565b610864565b3480156102d757600080fd5b5061010d6102e63660046126de565b61086e565b3480156102f757600080fd5b5061010d6103063660046126de565b6108c9565b34801561031757600080fd5b5061012f6103263660046127ae565b6001600160a01b031660009081526020818152604091829020825180840190935280548084526001909101549290910182905291565b34801561036857600080fd5b506101cb7f000000000000000000000000000000000000000000000000000000000000000081565b6001600160a01b0384166000818152602081815260408083208151630dfe168160e01b8152915190948994939092630dfe168192600480830193928290030181865afa1580156103e4573d6000803e3d6000fd5b505050506040513d601f19601f8201168201806040525081019061040891906127db565b90506000826001600160a01b031663d21220a76040518163ffffffff1660e01b8152600401602060405180830381865afa15801561044a573d6000803e3d6000fd5b505050506040513d601f19601f8201168201806040525081019061046e91906127db565b90506000836001600160a01b03166318160ddd6040518163ffffffff1660e01b8152600401602060405180830381865afa1580156104b0573d6000803e3d6000fd5b505050506040513d601f19601f820116820180604052508101906104d491906127f8565b85546104e09088612827565b6104ea919061283e565b90506000846001600160a01b03166318160ddd6040518163ffffffff1660e01b8152600401602060405180830381865afa15801561052c573d6000803e3d6000fd5b505050506040513d601f19601f8201168201806040525081019061055091906127f8565b600187015461055f9089612827565b610569919061283e565b905061057c848a8a858a60000154610998565b61058d838a8a848a60010154610998565b50505050505050505050565b600080336001600160a01b038616146105ea5760405162461bcd60e51b815260206004820152600e60248201526d34b73b30b634b21031b0b63632b960911b60448201526064015b60405180910390fd5b6001600160a01b0385166000908152602081905260409020805461060f908690612860565b81556001810154610621908590612860565b816001018190555080600001549250806001015491506000866001600160a01b0316630dfe16816040518163ffffffff1660e01b8152600401602060405180830381865afa158015610677573d6000803e3d6000fd5b505050506040513d601f19601f8201168201806040525081019061069b91906127db565b90506000876001600160a01b031663d21220a76040518163ffffffff1660e01b8152600401602060405180830381865afa1580156106dd573d6000803e3d6000fd5b505050506040513d601f19601f8201168201806040525081019061070191906127db565b905061070d8288610e32565b6107178187610e32565b61072289838961110a565b61072d89828861110a565b50505094509492505050565b61074382826112df565b5050565b6000610752826116a7565b92915050565b6001600160a01b0383166000818152602081815260408083208151630dfe168160e01b8152915190948894939092630dfe168192600480830193928290030181865afa1580156107ac573d6000803e3d6000fd5b505050506040513d601f19601f820116820180604052508101906107d091906127db565b90506000826001600160a01b031663d21220a76040518163ffffffff1660e01b8152600401602060405180830381865afa158015610812573d6000803e3d6000fd5b505050506040513d601f19601f8201168201806040525081019061083691906127db565b90506108498888848988600001546116e0565b61085a8888838888600101546116e0565b5050505050505050565b6107438183611a9b565b336001600160a01b038516146108b75760405162461bcd60e51b815260206004820152600e60248201526d34b73b30b634b21031b0b63632b960911b60448201526064016105e1565b6108c384848484611bb9565b50505050565b6108d583833084611e42565b6108df8382610e32565b6001600160a01b03808516600081815260208181526040918290208251630dfe168160e01b81529251909488169392630dfe16819260048083019391928290030181865afa158015610935573d6000803e3d6000fd5b505050506040513d601f19601f8201168201806040525081019061095991906127db565b6001600160a01b03160361097b578054610974908390612860565b8155610991565b81816001015461098b9190612860565b60018201555b5050505050565b6001600160a01b03851660009081526002602052604090205460ff1615610991576109c384866112df565b6109cd8585611a9b565b6001600160a01b0380861660009081526003602090815260408083209388168352600684019091528120600201548390610a079086612827565b610a11919061283e565b6001600160a01b0387166000908152600684016020526040812060010154919250908490610a3f9087612827565b610a49919061283e565b6001600160a01b0388166000908152600685016020526040812060020180549293508492909190610a7b908490612873565b90915550506001600160a01b038716600090815260068401602052604081206001018054839290610aad908490612873565b90915550506001600160a01b038616600090815260068401602052604081206002018054849290610adf908490612860565b90915550506001600160a01b038616600090815260068401602052604081206001018054839290610b11908490612860565b9091555050604080516001808252818301909252600091602080830190803683375050855482519293506001600160a01b031691839150600090610b5757610b5761289c565b6001600160a01b039283166020918202929092010152604051634c0369c360e01b81527f00000000000000000000000000000000000000000000000000000000000000009160009190831690634c0369c390610bb990869030906004016128f7565b600060405180830381865afa158015610bd6573d6000803e3d6000fd5b505050506040513d6000823e601f3d908101601f19168201604052610bfe9190810190612a0f565b50905060005b8151811015610d85576000888a8960060160008f6001600160a01b03166001600160a01b031681526020019081526020016000206004016000868681518110610c4f57610c4f61289c565b60200260200101516001600160a01b03166001600160a01b0316815260200190815260200160002054610c829190612827565b610c8c919061283e565b9050808860060160008e6001600160a01b03166001600160a01b031681526020019081526020016000206004016000858581518110610ccd57610ccd61289c565b60200260200101516001600160a01b03166001600160a01b031681526020019081526020016000206000828254610d049190612873565b90915550506001600160a01b038b16600090815260068901602052604081208451839260049092019190869086908110610d4057610d4061289c565b60200260200101516001600160a01b03166001600160a01b031681526020019081526020016000206000828254610d779190612860565b909155505050600101610c04565b506001600160a01b038a1660009081526006870160205260408120600301548890610db1908b90612827565b610dbb919061283e565b6001600160a01b038c166000908152600689016020526040812060030180549293508392909190610ded908490612873565b90915550506001600160a01b038a16600090815260068801602052604081206003018054839290610e1f908490612860565b9091555050505050505050505050505050565b6001600160a01b03821660009081526002602052604090205460ff1615610743577f00000000000000000000000000000000000000000000000000000000000000006001600160a01b0316826001600160a01b031603610fb557604051632e1a7d4d60e01b8152600481018290527f00000000000000000000000000000000000000000000000000000000000000006001600160a01b031690632e1a7d4d90602401600060405180830381600087803b158015610eee57600080fd5b505af1158015610f02573d6000803e3d6000fd5b505060405163474cf53d60e01b81526001600160a01b037f000000000000000000000000000000000000000000000000000000000000000081166004830152306024830152600060448301527f000000000000000000000000000000000000000000000000000000000000000016925063474cf53d915083906064016000604051808303818588803b158015610f9757600080fd5b505af1158015610fab573d6000803e3d6000fd5b50505050506110d9565b60405163095ea7b360e01b81526001600160a01b037f0000000000000000000000000000000000000000000000000000000000000000811660048301526024820183905283169063095ea7b3906044016020604051808303816000875af1158015611024573d6000803e3d6000fd5b505050506040513d601f19601f820116820180604052508101906110489190612ad4565b5060405163617ba03760e01b81526001600160a01b03838116600483015260248201839052306044830152600060648301527f0000000000000000000000000000000000000000000000000000000000000000169063617ba03790608401600060405180830381600087803b1580156110c057600080fd5b505af11580156110d4573d6000803e3d6000fd5b505050505b6001600160a01b03821660009081526001602052604081208054839290611101908490612860565b90915550505050565b6001600160a01b03821660009081526002602052604090205460ff16156112da576001600160a01b03821660009081526003602052604081206001810154909142919003611189576002820183905560018083018290556001600160a01b03861660009081526006840160205260409020908101849055819055610991565b600082600101548261119b9190612873565b90508083600201546111ad9190612827565b8360030160008282546111c09190612860565b90915550506001600160a01b03861660009081526006840160205260409020541561126a576001600160a01b038616600090815260068401602052604081205461120a9084612873565b6001600160a01b0388166000908152600686016020526040902060010154909150611236908290612827565b6001600160a01b038816600090815260068601602052604081206002018054909190611263908490612860565b9091555050505b8383600201600082825461127e9190612860565b90915550506001600160a01b0386166000908152600684016020526040812060010180548692906112b0908490612860565b9091555050506001600160a01b038516600090815260068301602052604090208190556001909101555b505050565b6001600160a01b03811660009081526002602052604090205460ff16156107435761130c8282600061110a565b6001600160a01b038116600090815260036020819052604090912090810154156112da57604080516001808252818301909252600091602080830190803683375050835482519293506001600160a01b0316918391506000906113715761137161289c565b6001600160a01b039283166020918202929092010152604051634c0369c360e01b81527f0000000000000000000000000000000000000000000000000000000000000000916000918291841690634c0369c3906113d490879030906004016128f7565b600060405180830381865afa1580156113f1573d6000803e3d6000fd5b505050506040513d6000823e601f3d908101601f191682016040526114199190810190612a0f565b9150915060005b825181101561085a5760008660060160008a6001600160a01b03166001600160a01b0316815260200190815260200160002060040160008584815181106114695761146961289c565b60200260200101516001600160a01b03166001600160a01b031681526020019081526020016000205487600301548860060160008c6001600160a01b03166001600160a01b03168152602001908152602001600020600201548585815181106114d4576114d461289c565b60200260200101518a60050160008988815181106114f4576114f461289c565b60200260200101516001600160a01b03166001600160a01b03168152602001908152602001600020546115279190612860565b6115319190612827565b61153b919061283e565b6115459190612873565b9050846001600160a01b031663236300dc87838c88878151811061156b5761156b61289c565b60200260200101516040518563ffffffff1660e01b81526004016115929493929190612af6565b6020604051808303816000875af11580156115b1573d6000803e3d6000fd5b505050506040513d601f19601f820116820180604052508101906115d591906127f8565b50808760050160008685815181106115ef576115ef61289c565b60200260200101516001600160a01b03166001600160a01b0316815260200190815260200160002060008282546116269190612860565b90915550506001600160a01b0389166000908152600688016020526040812085518392600490920191908790869081106116625761166261289c565b60200260200101516001600160a01b03166001600160a01b0316815260200190815260200160002060008282546116999190612860565b909155505050600101611420565b6000806116b383611f78565b6001600160a01b0384166000908152600160205260409020549091506116d99082612873565b9392505050565b6001600160a01b03831660009081526002602052604090205460ff16156109915761170b85846112df565b6117158386611a9b565b6001600160a01b038084166000908152600360209081526040808320938916835260068401909152812060020154839061174f9086612827565b611759919061283e565b90508082600301600082825461176f9190612873565b90915550506001600160a01b0387166000908152600683016020526040812060020180548392906117a1908490612873565b909155506117b3905086868987611bb9565b604080516001808252818301909252600091602080830190803683375050845482519293506001600160a01b0316918391506000906117f4576117f461289c565b6001600160a01b039283166020918202929092010152604051634c0369c360e01b81527f00000000000000000000000000000000000000000000000000000000000000009160009190831690634c0369c39061185690869030906004016128f7565b600060405180830381865afa158015611873573d6000803e3d6000fd5b505050506040513d6000823e601f3d908101601f1916820160405261189b9190810190612a0f565b50905060005b8151811015611a0657600087898860060160008f6001600160a01b03166001600160a01b0316815260200190815260200160002060040160008686815181106118ec576118ec61289c565b60200260200101516001600160a01b03166001600160a01b031681526020019081526020016000205461191f9190612827565b611929919061283e565b9050808760060160008e6001600160a01b03166001600160a01b03168152602001908152602001600020600401600085858151811061196a5761196a61289c565b60200260200101516001600160a01b03166001600160a01b0316815260200190815260200160002060008282546119a19190612873565b92505081905550808760050160008585815181106119c1576119c161289c565b60200260200101516001600160a01b03166001600160a01b0316815260200190815260200160002060008282546119f89190612873565b9091555050506001016118a1565b506001600160a01b038a1660009081526006860160205260408120600301548790611a32908a90612827565b611a3c919061283e565b6001600160a01b038c166000908152600688016020526040812060030180549293508392909190611a6e908490612873565b9250508190555080866004016000828254611a899190612873565b90915550505050505050505050505050565b6000611aa6836116a7565b9050611ab48284600061110a565b6001600160a01b03831660009081526003602052604081206004810154909190611adf908490612860565b905060008083600301541115611b42576001600160a01b0385166000908152600684016020526040902060038082015490850154600290920154909190611b27908590612827565b611b31919061283e565b611b3b9190612873565b9050611b46565b5060005b8015611bb157611b5886826001611ff3565b611b6386868361259c565b6001600160a01b038516600090815260068401602052604081206003018054839290611b90908490612860565b9250508190555080836004016000828254611bab9190612860565b90915550505b505050505050565b6040516370a0823160e01b81523060048201526000906001600160a01b038516906370a0823190602401602060405180830381865afa158015611c00573d6000803e3d6000fd5b505050506040513d601f19601f82011682018060405250810190611c2491906127f8565b905080821115611c4357611c4384611c3c8385612873565b6000611ff3565b604080518082018252601981527f7472616e7366657228616464726573732c75696e74323536290000000000000060209182015281516001600160a01b0386811660248301526044808301879052845180840390910181526064909201845291810180516001600160e01b031663a9059cbb60e01b17905291516000928392881691611ccf9190612b2f565b6000604051808303816000865af19150503d8060008114611d0c576040519150601f19603f3d011682016040523d82523d6000602084013e611d11565b606091505b5091509150818015611d3b575080511580611d3b575080806020019051810190611d3b9190612ad4565b611d875760405162461bcd60e51b815260206004820152601a60248201527f556e697377617056323a205452414e534645525f4641494c454400000000000060448201526064016105e1565b6001600160a01b03808816600081815260208181526040918290208251630dfe168160e01b8152925190948b169392630dfe16819260048083019391928290030181865afa158015611ddd573d6000803e3d6000fd5b505050506040513d601f19601f82011682018060405250810190611e0191906127db565b6001600160a01b031603611e23578054611e1c908690612873565b815561085a565b848160010154611e339190612873565b60018201555050505050505050565b604080516001600160a01b0385811660248301528481166044830152606480830185905283518084039091018152608490920183526020820180516001600160e01b03166323b872dd60e01b1790529151600092839290881691611ea69190612b2f565b6000604051808303816000865af19150503d8060008114611ee3576040519150601f19603f3d011682016040523d82523d6000602084013e611ee8565b606091505b5091509150818015611f12575080511580611f12575080806020019051810190611f129190612ad4565b611bb15760405162461bcd60e51b815260206004820152603160248201527f5472616e7366657248656c7065723a3a7472616e7366657246726f6d3a207472604482015270185b9cd9995c919c9bdb4819985a5b1959607a1b60648201526084016105e1565b6001600160a01b038181166000908152600360205260408082205490516370a0823160e01b8152306004820152919216906370a0823190602401602060405180830381865afa158015611fcf573d6000803e3d6000fd5b505050506040513d601f19601f8201168201806040525081019061075291906127f8565b6001600160a01b03831660009081526002602052604090205460ff16156112da577f00000000000000000000000000000000000000000000000000000000000000006001600160a01b0316836001600160a01b0316036123085760007f000000000000000000000000000000000000000000000000000000000000000090506000816001600160a01b031663affa88176040518163ffffffff1660e01b8152600401602060405180830381865afa1580156120b2573d6000803e3d6000fd5b505050506040513d601f19601f820116820180604052508101906120d691906127db565b6040516335ea6a7560e01b81526001600160a01b0380831660048301529192506000917f000000000000000000000000000000000000000000000000000000000000000016906335ea6a75906024016101e060405180830381865afa158015612143573d6000803e3d6000fd5b505050506040513d601f19601f820116820180604052508101906121679190612be7565b610100015160405163095ea7b360e01b81526001600160a01b037f000000000000000000000000000000000000000000000000000000000000000081166004830152602482018890529192509082169063095ea7b3906044016020604051808303816000875af11580156121df573d6000803e3d6000fd5b505050506040513d601f19601f820116820180604052508101906122039190612ad4565b50604051630402806960e51b81526001600160a01b037f000000000000000000000000000000000000000000000000000000000000000081166004830152602482018790523060448301528416906380500d2090606401600060405180830381600087803b15801561227457600080fd5b505af1158015612288573d6000803e3d6000fd5b505050507f00000000000000000000000000000000000000000000000000000000000000006001600160a01b031663d0e30db0866040518263ffffffff1660e01b81526004016000604051808303818588803b1580156122e757600080fd5b505af11580156122fb573d6000803e3d6000fd5b5050505050505050612565565b60405163095ea7b360e01b81526001600160a01b037f0000000000000000000000000000000000000000000000000000000000000000811660048301526024820184905284169063095ea7b3906044016020604051808303816000875af1158015612377573d6000803e3d6000fd5b505050506040513d601f19601f8201168201806040525081019061239b9190612ad4565b506040516335ea6a7560e01b81526001600160a01b0384811660048301526000917f0000000000000000000000000000000000000000000000000000000000000000909116906335ea6a75906024016101e060405180830381865afa158015612408573d6000803e3d6000fd5b505050506040513d601f19601f8201168201806040525081019061242c9190612be7565b610100015160405163095ea7b360e01b81526001600160a01b037f000000000000000000000000000000000000000000000000000000000000000081166004830152602482018690529192509082169063095ea7b3906044016020604051808303816000875af11580156124a4573d6000803e3d6000fd5b505050506040513d601f19601f820116820180604052508101906124c89190612ad4565b50604051631a4ca37b60e21b81526001600160a01b038581166004830152602482018590523060448301527f000000000000000000000000000000000000000000000000000000000000000016906369328dec906064016020604051808303816000875af115801561253e573d6000803e3d6000fd5b505050506040513d601f19601f8201168201806040525081019061256291906127f8565b50505b806112da576001600160a01b03831660009081526001602052604081208054849290612592908490612873565b9091555050505050565b604080516001600160a01b038481166024830152604480830185905283518084039091018152606490920183526020820180516001600160e01b031663a9059cbb60e01b17905291516000928392908716916125f89190612b2f565b6000604051808303816000865af19150503d8060008114612635576040519150601f19603f3d011682016040523d82523d6000602084013e61263a565b606091505b50915091508180156126645750805115806126645750808060200190518101906126649190612ad4565b6109915760405162461bcd60e51b815260206004820152602d60248201527f5472616e7366657248656c7065723a3a736166655472616e736665723a20747260448201526c185b9cd9995c8819985a5b1959609a1b60648201526084016105e1565b6001600160a01b03811681146126db57600080fd5b50565b600080600080608085870312156126f457600080fd5b84356126ff816126c6565b9350602085013561270f816126c6565b9250604085013561271f816126c6565b9396929550929360600135925050565b6000806000806080858703121561274557600080fd5b8435612750816126c6565b93506020850135612760816126c6565b93969395505050506040820135916060013590565b6000806040838503121561278857600080fd5b8235612793816126c6565b915060208301356127a3816126c6565b809150509250929050565b6000602082840312156127c057600080fd5b81356116d9816126c6565b80516127d6816126c6565b919050565b6000602082840312156127ed57600080fd5b81516116d9816126c6565b60006020828403121561280a57600080fd5b5051919050565b634e487b7160e01b600052601160045260246000fd5b808202811582820484141761075257610752612811565b60008261285b57634e487b7160e01b600052601260045260246000fd5b500490565b8082018082111561075257610752612811565b8181038181111561075257610752612811565b634e487b7160e01b600052604160045260246000fd5b634e487b7160e01b600052603260045260246000fd5b60008151808452602080850194506020840160005b838110156128ec5781516001600160a01b0316875295820195908201906001016128c7565b509495945050505050565b60408152600061290a60408301856128b2565b905060018060a01b03831660208301529392505050565b6040516101e0810167ffffffffffffffff8111828210171561294557612945612886565b60405290565b604051601f8201601f1916810167ffffffffffffffff8111828210171561297457612974612886565b604052919050565b600067ffffffffffffffff82111561299657612996612886565b5060051b60200190565b600082601f8301126129b157600080fd5b815160206129c66129c18361297c565b61294b565b8083825260208201915060208460051b8701019350868411156129e857600080fd5b602086015b84811015612a0457805183529183019183016129ed565b509695505050505050565b60008060408385031215612a2257600080fd5b825167ffffffffffffffff80821115612a3a57600080fd5b818501915085601f830112612a4e57600080fd5b81516020612a5e6129c18361297c565b82815260059290921b84018101918181019089841115612a7d57600080fd5b948201945b83861015612aa4578551612a95816126c6565b82529482019490820190612a82565b91880151919650909350505080821115612abd57600080fd5b50612aca858286016129a0565b9150509250929050565b600060208284031215612ae657600080fd5b815180151581146116d957600080fd5b608081526000612b0960808301876128b2565b6020830195909552506001600160a01b0392831660408201529116606090910152919050565b6000825160005b81811015612b505760208186018101518583015201612b36565b506000920191825250919050565b600060208284031215612b7057600080fd5b6040516020810181811067ffffffffffffffff82111715612b9357612b93612886565b6040529151825250919050565b80516fffffffffffffffffffffffffffffffff811681146127d657600080fd5b805164ffffffffff811681146127d657600080fd5b805161ffff811681146127d657600080fd5b60006101e08284031215612bfa57600080fd5b612c02612921565b612c0c8484612b5e565b8152612c1a60208401612ba0565b6020820152612c2b60408401612ba0565b6040820152612c3c60608401612ba0565b6060820152612c4d60808401612ba0565b6080820152612c5e60a08401612ba0565b60a0820152612c6f60c08401612bc0565b60c0820152612c8060e08401612bd5565b60e0820152610100612c938185016127cb565b90820152610120612ca58482016127cb565b90820152610140612cb78482016127cb565b90820152610160612cc98482016127cb565b90820152610180612cdb848201612ba0565b908201526101a0612ced848201612ba0565b908201526101c0612cff848201612ba0565b90820152939250505056fea26469706673582212207f3711685c350e23bd20ce8cabdd452d795aa7bf7dd3c00736da9f2174d632f264736f6c63430008180033"
}