{
  "address": "0x85F3300F3198507Cee06a89F7E24D84763ff45df",
  "abi": [
    {
      "inputs": [
        {
          "internalType": "address",
          "name": "_aaveV3Pool",
          "type": "address"
        },
        {
          "internalType": "address",
          "name": "_wETh",
          "type": "address"
        },
        {
          "internalType": "address",
          "name": "_ethGateway",
          "type": "address"
        },
        {
          "internalType": "address",
          "name": "_aaveRewardController",
          "type": "address"
        },
        {
          "internalType": "address[]",
          "name": "_supportEarnTokens",
          "type": "address[]"
        }
      ],
      "stateMutability": "nonpayable",
      "type": "constructor"
    },
    {
      "inputs": [],
      "name": "aaveRewardController",
      "outputs": [
        {
          "internalType": "address",
          "name": "",
          "type": "address"
        }
      ],
      "stateMutability": "view",
      "type": "function"
    },
    {
      "inputs": [],
      "name": "aaveV3Pool",
      "outputs": [
        {
          "internalType": "address",
          "name": "",
          "type": "address"
        }
      ],
      "stateMutability": "view",
      "type": "function"
    },
    {
      "inputs": [
        {
          "internalType": "address",
          "name": "user",
          "type": "address"
        },
        {
          "internalType": "address",
          "name": "token",
          "type": "address"
        }
      ],
      "name": "claimInterest",
      "outputs": [],
      "stateMutability": "nonpayable",
      "type": "function"
    },
    {
      "inputs": [
        {
          "internalType": "address",
          "name": "user",
          "type": "address"
        },
        {
          "internalType": "address",
          "name": "token",
          "type": "address"
        }
      ],
      "name": "claimReward",
      "outputs": [],
      "stateMutability": "nonpayable",
      "type": "function"
    },
    {
      "inputs": [],
      "name": "ethGateway",
      "outputs": [
        {
          "internalType": "address",
          "name": "",
          "type": "address"
        }
      ],
      "stateMutability": "view",
      "type": "function"
    },
    {
      "inputs": [
        {
          "internalType": "address",
          "name": "token",
          "type": "address"
        }
      ],
      "name": "getInterest",
      "outputs": [
        {
          "internalType": "uint256",
          "name": "interest",
          "type": "uint256"
        }
      ],
      "stateMutability": "view",
      "type": "function"
    },
    {
      "inputs": [
        {
          "internalType": "address",
          "name": "pair",
          "type": "address"
        }
      ],
      "name": "getPairBanlance",
      "outputs": [
        {
          "internalType": "uint256",
          "name": "balance0",
          "type": "uint256"
        },
        {
          "internalType": "uint256",
          "name": "balance1",
          "type": "uint256"
        }
      ],
      "stateMutability": "view",
      "type": "function"
    },
    {
      "inputs": [
        {
          "internalType": "address",
          "name": "user",
          "type": "address"
        },
        {
          "internalType": "address",
          "name": "pair",
          "type": "address"
        },
        {
          "internalType": "uint256",
          "name": "amount0",
          "type": "uint256"
        },
        {
          "internalType": "uint256",
          "name": "amount1",
          "type": "uint256"
        }
      ],
      "name": "onBurn",
      "outputs": [],
      "stateMutability": "nonpayable",
      "type": "function"
    },
    {
      "inputs": [
        {
          "internalType": "address",
          "name": "user",
          "type": "address"
        },
        {
          "internalType": "address",
          "name": "pair",
          "type": "address"
        },
        {
          "internalType": "uint256",
          "name": "amount0",
          "type": "uint256"
        },
        {
          "internalType": "uint256",
          "name": "amount1",
          "type": "uint256"
        }
      ],
      "name": "onMint",
      "outputs": [
        {
          "internalType": "uint256",
          "name": "balance0",
          "type": "uint256"
        },
        {
          "internalType": "uint256",
          "name": "balance1",
          "type": "uint256"
        }
      ],
      "stateMutability": "nonpayable",
      "type": "function"
    },
    {
      "inputs": [
        {
          "internalType": "address",
          "name": "pair",
          "type": "address"
        },
        {
          "internalType": "address",
          "name": "from",
          "type": "address"
        },
        {
          "internalType": "address",
          "name": "to",
          "type": "address"
        },
        {
          "internalType": "uint256",
          "name": "amount",
          "type": "uint256"
        }
      ],
      "name": "onTransfer",
      "outputs": [],
      "stateMutability": "nonpayable",
      "type": "function"
    },
    {
      "inputs": [
        {
          "internalType": "address",
          "name": "pair",
          "type": "address"
        },
        {
          "internalType": "address",
          "name": "token",
          "type": "address"
        },
        {
          "internalType": "address",
          "name": "from",
          "type": "address"
        },
        {
          "internalType": "uint256",
          "name": "value",
          "type": "uint256"
        }
      ],
      "name": "safeTransferFrom",
      "outputs": [],
      "stateMutability": "nonpayable",
      "type": "function"
    },
    {
      "inputs": [
        {
          "internalType": "address",
          "name": "pair",
          "type": "address"
        },
        {
          "internalType": "address",
          "name": "token",
          "type": "address"
        },
        {
          "internalType": "address",
          "name": "to",
          "type": "address"
        },
        {
          "internalType": "uint256",
          "name": "value",
          "type": "uint256"
        }
      ],
      "name": "safeTransferTo",
      "outputs": [],
      "stateMutability": "nonpayable",
      "type": "function"
    },
    {
      "inputs": [
        {
          "internalType": "address",
          "name": "",
          "type": "address"
        }
      ],
      "name": "supportEarnTokens",
      "outputs": [
        {
          "internalType": "bool",
          "name": "",
          "type": "bool"
        }
      ],
      "stateMutability": "view",
      "type": "function"
    },
    {
      "inputs": [],
      "name": "wETH",
      "outputs": [
        {
          "internalType": "address",
          "name": "",
          "type": "address"
        }
      ],
      "stateMutability": "view",
      "type": "function"
    },
    {
      "stateMutability": "payable",
      "type": "receive"
    }
  ],
  "transactionHash": "0x7973c0b875de96e2fc8184e563719777a05bd3cca8e83684d62ceaa6c63f3fe3",
  "args": [
    "0x87870Bca3F3fD6335C3F4ce8392D69350B4fA4E2",
    "0xcaA553818AF6F208b740B38D20d8cD14Ea80C5Ec",
    "0x893411580e590D62dDBca8a703d61Cc4A8c7b2b9",
    "0x8164Cc65827dcFe994AB23944CBC90e0aa80bFcb",
    [
      "0xcaA553818AF6F208b740B38D20d8cD14Ea80C5Ec",
      "0x94a9D9AC8a22534E3FaCa9F4e7F2E2cf85d5E4C8",
      "0x29f2D40B0605204364af54EC677bD022dA425d03"
    ]
  ],
  "numDeployments": 1,
  "solcInputHash": "db774a0c4d36f3361a5e1dbd743ef975",
  "bytecode": "0x6101006040523480156200001257600080fd5b506040516200331f3803806200331f83398101604081905262000035916200025b565b6001600160a01b0380861660805284811660a05283811660c052821660e05260005b8151811015620001bd576001600260008484815181106200007c576200007c62000362565b60200260200101516001600160a01b03166001600160a01b0316815260200190815260200160002060006101000a81548160ff0219169083151502179055506080516001600160a01b03166335ea6a75838381518110620000e157620000e162000362565b60200260200101516040518263ffffffff1660e01b81526004016200011591906001600160a01b0391909116815260200190565b6101e060405180830381865afa15801562000134573d6000803e3d6000fd5b505050506040513d601f19601f820116820180604052508101906200015a9190620003fe565b61010001516003600084848151811062000178576200017862000362565b6020908102919091018101516001600160a01b0390811683529082019290925260400160002080546001600160a01b0319169290911691909117905560010162000057565b50505050505062000542565b80516001600160a01b0381168114620001e157600080fd5b919050565b634e487b7160e01b600052604160045260246000fd5b6040516101e081016001600160401b0381118282101715620002225762000222620001e6565b60405290565b604051601f8201601f191681016001600160401b0381118282101715620002535762000253620001e6565b604052919050565b600080600080600060a086880312156200027457600080fd5b6200027f86620001c9565b9450602062000290818801620001c9565b9450620002a060408801620001c9565b9350620002b060608801620001c9565b60808801519093506001600160401b0380821115620002ce57600080fd5b818901915089601f830112620002e357600080fd5b815181811115620002f857620002f8620001e6565b8060051b91506200030b84830162000228565b818152918301840191848101908c8411156200032657600080fd5b938501935b838510156200034f576200033f85620001c9565b825293850193908501906200032b565b8096505050505050509295509295909350565b634e487b7160e01b600052603260045260246000fd5b6000602082840312156200038b57600080fd5b604051602081016001600160401b0381118282101715620003b057620003b0620001e6565b6040529151825250919050565b80516001600160801b0381168114620001e157600080fd5b805164ffffffffff81168114620001e157600080fd5b805161ffff81168114620001e157600080fd5b60006101e082840312156200041257600080fd5b6200041c620001fc565b62000428848462000378565b81526200043860208401620003bd565b60208201526200044b60408401620003bd565b60408201526200045e60608401620003bd565b60608201526200047160808401620003bd565b60808201526200048460a08401620003bd565b60a08201526200049760c08401620003d5565b60c0820152620004aa60e08401620003eb565b60e0820152610100620004bf818501620001c9565b90820152610120620004d3848201620001c9565b90820152610140620004e7848201620001c9565b90820152610160620004fb848201620001c9565b908201526101806200050f848201620003bd565b908201526101a062000523848201620003bd565b908201526101c062000537848201620003bd565b908201529392505050565b60805160a05160c05160e051612d1e62000601600039600081816101a901528181610b7c0152818161138b015261180e01526000818161022901528181610f500152818161202f015261216101526000818161036e01528181610e5501528181610ea201528181611ff4015261226c0152600081816101f501528181610f1b01528181610fcc0152818161107c015281816120d9015281816121f9015281816122fd0152818161239c0152818161242601526124d30152612d1e6000f3fe6080604052600436106100e15760003560e01c80638f2c01f81161007f578063bf4d6b0511610059578063bf4d6b05146102cb578063d9fc4b61146102eb578063e8929f6f1461030b578063f24286211461035c57600080fd5b80638f2c01f81461024b5780639bfe656e1461026b578063ba437c68146102ab57600080fd5b80637aaa3470116100bb5780637aaa34701461016957806381717c1a1461019757806386a06ff0146101e35780638c00ce731461021757600080fd5b80630987df03146100ed5780633f812ccc1461010f5780634953c7821461014957600080fd5b366100e857005b600080fd5b3480156100f957600080fd5b5061010d6101083660046126bc565b610390565b005b34801561011b57600080fd5b5061012f61012a36600461270d565b610599565b604080519283526020830191909152015b60405180910390f35b34801561015557600080fd5b5061010d610164366004612753565b610739565b34801561017557600080fd5b5061018961018436600461278c565b610747565b604051908152602001610140565b3480156101a357600080fd5b506101cb7f000000000000000000000000000000000000000000000000000000000000000081565b6040516001600160a01b039091168152602001610140565b3480156101ef57600080fd5b506101cb7f000000000000000000000000000000000000000000000000000000000000000081565b34801561022357600080fd5b506101cb7f000000000000000000000000000000000000000000000000000000000000000081565b34801561025757600080fd5b5061010d61026636600461270d565b610758565b34801561027757600080fd5b5061029b61028636600461278c565b60026020526000908152604090205460ff1681565b6040519015158152602001610140565b3480156102b757600080fd5b5061010d6102c6366004612753565b610864565b3480156102d757600080fd5b5061010d6102e63660046126bc565b61086e565b3480156102f757600080fd5b5061010d6103063660046126bc565b6108c9565b34801561031757600080fd5b5061012f61032636600461278c565b6001600160a01b031660009081526020818152604091829020825180840190935280548084526001909101549290910182905291565b34801561036857600080fd5b506101cb7f000000000000000000000000000000000000000000000000000000000000000081565b6001600160a01b0384166000818152602081815260408083208151630dfe168160e01b8152915190948994939092630dfe168192600480830193928290030181865afa1580156103e4573d6000803e3d6000fd5b505050506040513d601f19601f8201168201806040525081019061040891906127b9565b90506000826001600160a01b031663d21220a76040518163ffffffff1660e01b8152600401602060405180830381865afa15801561044a573d6000803e3d6000fd5b505050506040513d601f19601f8201168201806040525081019061046e91906127b9565b90506000836001600160a01b03166318160ddd6040518163ffffffff1660e01b8152600401602060405180830381865afa1580156104b0573d6000803e3d6000fd5b505050506040513d601f19601f820116820180604052508101906104d491906127d6565b85546104e09088612805565b6104ea919061281c565b90506000846001600160a01b03166318160ddd6040518163ffffffff1660e01b8152600401602060405180830381865afa15801561052c573d6000803e3d6000fd5b505050506040513d601f19601f8201168201806040525081019061055091906127d6565b600187015461055f9089612805565b610569919061281c565b905061057c848a8a858a60000154610998565b61058d838a8a848a60010154610998565b50505050505050505050565b600080336001600160a01b038616146105ea5760405162461bcd60e51b815260206004820152600e60248201526d34b73b30b634b21031b0b63632b960911b60448201526064015b60405180910390fd5b6001600160a01b0385166000908152602081905260409020805461060f90869061283e565b8155600181015461062190859061283e565b816001018190555080600001549250806001015491506000866001600160a01b0316630dfe16816040518163ffffffff1660e01b8152600401602060405180830381865afa158015610677573d6000803e3d6000fd5b505050506040513d601f19601f8201168201806040525081019061069b91906127b9565b90506000876001600160a01b031663d21220a76040518163ffffffff1660e01b8152600401602060405180830381865afa1580156106dd573d6000803e3d6000fd5b505050506040513d601f19601f8201168201806040525081019061070191906127b9565b905061070d8288610e32565b6107178187610e32565b61072289838961110a565b61072d89828861110a565b50505094509492505050565b61074382826112df565b5050565b60006107528261169c565b92915050565b6001600160a01b0383166000818152602081815260408083208151630dfe168160e01b8152915190948894939092630dfe168192600480830193928290030181865afa1580156107ac573d6000803e3d6000fd5b505050506040513d601f19601f820116820180604052508101906107d091906127b9565b90506000826001600160a01b031663d21220a76040518163ffffffff1660e01b8152600401602060405180830381865afa158015610812573d6000803e3d6000fd5b505050506040513d601f19601f8201168201806040525081019061083691906127b9565b90506108498888848988600001546116d5565b61085a8888838888600101546116d5565b5050505050505050565b6107438183611a90565b336001600160a01b038516146108b75760405162461bcd60e51b815260206004820152600e60248201526d34b73b30b634b21031b0b63632b960911b60448201526064016105e1565b6108c384848484611b97565b50505050565b6108d583833084611e20565b6108df8382610e32565b6001600160a01b03808516600081815260208181526040918290208251630dfe168160e01b81529251909488169392630dfe16819260048083019391928290030181865afa158015610935573d6000803e3d6000fd5b505050506040513d601f19601f8201168201806040525081019061095991906127b9565b6001600160a01b03160361097b57805461097490839061283e565b8155610991565b81816001015461098b919061283e565b60018201555b5050505050565b6001600160a01b03851660009081526002602052604090205460ff1615610991576109c384866112df565b6109cd8585611a90565b6001600160a01b0380861660009081526003602090815260408083209388168352600684019091528120600201548390610a079086612805565b610a11919061281c565b6001600160a01b0387166000908152600684016020526040812060010154919250908490610a3f9087612805565b610a49919061281c565b6001600160a01b0388166000908152600685016020526040812060020180549293508492909190610a7b908490612851565b90915550506001600160a01b038716600090815260068401602052604081206001018054839290610aad908490612851565b90915550506001600160a01b038616600090815260068401602052604081206002018054849290610adf90849061283e565b90915550506001600160a01b038616600090815260068401602052604081206001018054839290610b1190849061283e565b9091555050604080516001808252818301909252600091602080830190803683375050855482519293506001600160a01b031691839150600090610b5757610b5761287a565b6001600160a01b039283166020918202929092010152604051634c0369c360e01b81527f00000000000000000000000000000000000000000000000000000000000000009160009190831690634c0369c390610bb990869030906004016128d5565b600060405180830381865afa158015610bd6573d6000803e3d6000fd5b505050506040513d6000823e601f3d908101601f19168201604052610bfe91908101906129ed565b50905060005b8151811015610d85576000888a8960060160008f6001600160a01b03166001600160a01b031681526020019081526020016000206004016000868681518110610c4f57610c4f61287a565b60200260200101516001600160a01b03166001600160a01b0316815260200190815260200160002054610c829190612805565b610c8c919061281c565b9050808860060160008e6001600160a01b03166001600160a01b031681526020019081526020016000206004016000858581518110610ccd57610ccd61287a565b60200260200101516001600160a01b03166001600160a01b031681526020019081526020016000206000828254610d049190612851565b90915550506001600160a01b038b16600090815260068901602052604081208451839260049092019190869086908110610d4057610d4061287a565b60200260200101516001600160a01b03166001600160a01b031681526020019081526020016000206000828254610d77919061283e565b909155505050600101610c04565b506001600160a01b038a1660009081526006870160205260408120600301548890610db1908b90612805565b610dbb919061281c565b6001600160a01b038c166000908152600689016020526040812060030180549293508392909190610ded908490612851565b90915550506001600160a01b038a16600090815260068801602052604081206003018054839290610e1f90849061283e565b9091555050505050505050505050505050565b6001600160a01b03821660009081526002602052604090205460ff1615610743577f00000000000000000000000000000000000000000000000000000000000000006001600160a01b0316826001600160a01b031603610fb557604051632e1a7d4d60e01b8152600481018290527f00000000000000000000000000000000000000000000000000000000000000006001600160a01b031690632e1a7d4d90602401600060405180830381600087803b158015610eee57600080fd5b505af1158015610f02573d6000803e3d6000fd5b505060405163474cf53d60e01b81526001600160a01b037f000000000000000000000000000000000000000000000000000000000000000081166004830152306024830152600060448301527f000000000000000000000000000000000000000000000000000000000000000016925063474cf53d915083906064016000604051808303818588803b158015610f9757600080fd5b505af1158015610fab573d6000803e3d6000fd5b50505050506110d9565b60405163095ea7b360e01b81526001600160a01b037f0000000000000000000000000000000000000000000000000000000000000000811660048301526024820183905283169063095ea7b3906044016020604051808303816000875af1158015611024573d6000803e3d6000fd5b505050506040513d601f19601f820116820180604052508101906110489190612ab2565b5060405163617ba03760e01b81526001600160a01b03838116600483015260248201839052306044830152600060648301527f0000000000000000000000000000000000000000000000000000000000000000169063617ba03790608401600060405180830381600087803b1580156110c057600080fd5b505af11580156110d4573d6000803e3d6000fd5b505050505b6001600160a01b0382166000908152600160205260408120805483929061110190849061283e565b90915550505050565b6001600160a01b03821660009081526002602052604090205460ff16156112da576001600160a01b03821660009081526003602052604081206001810154909142919003611189576002820183905560018083018290556001600160a01b03861660009081526006840160205260409020908101849055819055610991565b600082600101548261119b9190612851565b90508083600201546111ad9190612805565b8360030160008282546111c0919061283e565b90915550506001600160a01b03861660009081526006840160205260409020541561126a576001600160a01b038616600090815260068401602052604081205461120a9084612851565b6001600160a01b0388166000908152600686016020526040902060010154909150611236908290612805565b6001600160a01b03881660009081526006860160205260408120600201805490919061126390849061283e565b9091555050505b8383600201600082825461127e919061283e565b90915550506001600160a01b0386166000908152600684016020526040812060010180548692906112b090849061283e565b9091555050506001600160a01b038516600090815260068301602052604090208190556001909101555b505050565b6001600160a01b03811660009081526002602052604090205460ff16156107435761130c8282600061110a565b6001600160a01b038116600090815260036020526040808220815160018082528184019093529092918160200160208202803683375050835482519293506001600160a01b0316918391506000906113665761136661287a565b6001600160a01b039283166020918202929092010152604051634c0369c360e01b81527f0000000000000000000000000000000000000000000000000000000000000000916000918291841690634c0369c3906113c990879030906004016128d5565b600060405180830381865afa1580156113e6573d6000803e3d6000fd5b505050506040513d6000823e601f3d908101601f1916820160405261140e91908101906129ed565b9150915060005b825181101561085a5760008660060160008a6001600160a01b03166001600160a01b03168152602001908152602001600020600401600085848151811061145e5761145e61287a565b60200260200101516001600160a01b03166001600160a01b031681526020019081526020016000205487600301548860060160008c6001600160a01b03166001600160a01b03168152602001908152602001600020600201548585815181106114c9576114c961287a565b60200260200101518a60050160008988815181106114e9576114e961287a565b60200260200101516001600160a01b03166001600160a01b031681526020019081526020016000205461151c919061283e565b6115269190612805565b611530919061281c565b61153a9190612851565b9050846001600160a01b031663236300dc87838c8887815181106115605761156061287a565b60200260200101516040518563ffffffff1660e01b81526004016115879493929190612ad4565b6020604051808303816000875af11580156115a6573d6000803e3d6000fd5b505050506040513d601f19601f820116820180604052508101906115ca91906127d6565b50808760050160008685815181106115e4576115e461287a565b60200260200101516001600160a01b03166001600160a01b03168152602001908152602001600020600082825461161b919061283e565b90915550506001600160a01b0389166000908152600688016020526040812085518392600490920191908790869081106116575761165761287a565b60200260200101516001600160a01b03166001600160a01b03168152602001908152602001600020600082825461168e919061283e565b909155505050600101611415565b6000806116a883611f56565b6001600160a01b0384166000908152600160205260409020549091506116ce9082612851565b9392505050565b6001600160a01b03831660009081526002602052604090205460ff16156109915761170085846112df565b61170a8386611a90565b6001600160a01b03808416600090815260036020908152604080832093891683526006840190915281206002015483906117449086612805565b61174e919061281c565b9050808260030160008282546117649190612851565b90915550506001600160a01b038716600090815260068301602052604081206002018054839290611796908490612851565b909155506117a8905086868987611b97565b604080516001808252818301909252600091602080830190803683375050845482519293506001600160a01b0316918391506000906117e9576117e961287a565b6001600160a01b039283166020918202929092010152604051634c0369c360e01b81527f00000000000000000000000000000000000000000000000000000000000000009160009190831690634c0369c39061184b90869030906004016128d5565b600060405180830381865afa158015611868573d6000803e3d6000fd5b505050506040513d6000823e601f3d908101601f1916820160405261189091908101906129ed565b50905060005b81518110156119fb57600087898860060160008f6001600160a01b03166001600160a01b0316815260200190815260200160002060040160008686815181106118e1576118e161287a565b60200260200101516001600160a01b03166001600160a01b03168152602001908152602001600020546119149190612805565b61191e919061281c565b9050808760060160008e6001600160a01b03166001600160a01b03168152602001908152602001600020600401600085858151811061195f5761195f61287a565b60200260200101516001600160a01b03166001600160a01b0316815260200190815260200160002060008282546119969190612851565b92505081905550808760050160008585815181106119b6576119b661287a565b60200260200101516001600160a01b03166001600160a01b0316815260200190815260200160002060008282546119ed9190612851565b909155505050600101611896565b506001600160a01b038a1660009081526006860160205260408120600301548790611a27908a90612805565b611a31919061281c565b6001600160a01b038c166000908152600688016020526040812060030180549293508392909190611a63908490612851565b9250508190555080866004016000828254611a7e9190612851565b90915550505050505050505050505050565b6000611a9b8361169c565b9050611aa98284600061110a565b6001600160a01b03831660009081526003602052604081206004810154909190611ad490849061283e565b6001600160a01b03851660009081526006840160205260408120600380820154908601546002909201549394509192611b0e908590612805565b611b18919061281c565b611b229190612851565b90508015611b8f57611b3686826001611fd1565b611b4186868361257a565b6001600160a01b038516600090815260068401602052604081206003018054839290611b6e90849061283e565b9250508190555080836004016000828254611b89919061283e565b90915550505b505050505050565b6040516370a0823160e01b81523060048201526000906001600160a01b038516906370a0823190602401602060405180830381865afa158015611bde573d6000803e3d6000fd5b505050506040513d601f19601f82011682018060405250810190611c0291906127d6565b905080821115611c2157611c2184611c1a8385612851565b6000611fd1565b604080518082018252601981527f7472616e7366657228616464726573732c75696e74323536290000000000000060209182015281516001600160a01b0386811660248301526044808301879052845180840390910181526064909201845291810180516001600160e01b031663a9059cbb60e01b17905291516000928392881691611cad9190612b0d565b6000604051808303816000865af19150503d8060008114611cea576040519150601f19603f3d011682016040523d82523d6000602084013e611cef565b606091505b5091509150818015611d19575080511580611d19575080806020019051810190611d199190612ab2565b611d655760405162461bcd60e51b815260206004820152601a60248201527f556e697377617056323a205452414e534645525f4641494c454400000000000060448201526064016105e1565b6001600160a01b03808816600081815260208181526040918290208251630dfe168160e01b8152925190948b169392630dfe16819260048083019391928290030181865afa158015611dbb573d6000803e3d6000fd5b505050506040513d601f19601f82011682018060405250810190611ddf91906127b9565b6001600160a01b031603611e01578054611dfa908690612851565b815561085a565b848160010154611e119190612851565b60018201555050505050505050565b604080516001600160a01b0385811660248301528481166044830152606480830185905283518084039091018152608490920183526020820180516001600160e01b03166323b872dd60e01b1790529151600092839290881691611e849190612b0d565b6000604051808303816000865af19150503d8060008114611ec1576040519150601f19603f3d011682016040523d82523d6000602084013e611ec6565b606091505b5091509150818015611ef0575080511580611ef0575080806020019051810190611ef09190612ab2565b611b8f5760405162461bcd60e51b815260206004820152603160248201527f5472616e7366657248656c7065723a3a7472616e7366657246726f6d3a207472604482015270185b9cd9995c919c9bdb4819985a5b1959607a1b60648201526084016105e1565b6001600160a01b038181166000908152600360205260408082205490516370a0823160e01b8152306004820152919216906370a0823190602401602060405180830381865afa158015611fad573d6000803e3d6000fd5b505050506040513d601f19601f8201168201806040525081019061075291906127d6565b6001600160a01b03831660009081526002602052604090205460ff16156112da577f00000000000000000000000000000000000000000000000000000000000000006001600160a01b0316836001600160a01b0316036122e65760007f000000000000000000000000000000000000000000000000000000000000000090506000816001600160a01b031663affa88176040518163ffffffff1660e01b8152600401602060405180830381865afa158015612090573d6000803e3d6000fd5b505050506040513d601f19601f820116820180604052508101906120b491906127b9565b6040516335ea6a7560e01b81526001600160a01b0380831660048301529192506000917f000000000000000000000000000000000000000000000000000000000000000016906335ea6a75906024016101e060405180830381865afa158015612121573d6000803e3d6000fd5b505050506040513d601f19601f820116820180604052508101906121459190612bc5565b610100015160405163095ea7b360e01b81526001600160a01b037f000000000000000000000000000000000000000000000000000000000000000081166004830152602482018890529192509082169063095ea7b3906044016020604051808303816000875af11580156121bd573d6000803e3d6000fd5b505050506040513d601f19601f820116820180604052508101906121e19190612ab2565b50604051630402806960e51b81526001600160a01b037f000000000000000000000000000000000000000000000000000000000000000081166004830152602482018790523060448301528416906380500d2090606401600060405180830381600087803b15801561225257600080fd5b505af1158015612266573d6000803e3d6000fd5b505050507f00000000000000000000000000000000000000000000000000000000000000006001600160a01b031663d0e30db0866040518263ffffffff1660e01b81526004016000604051808303818588803b1580156122c557600080fd5b505af11580156122d9573d6000803e3d6000fd5b5050505050505050612543565b60405163095ea7b360e01b81526001600160a01b037f0000000000000000000000000000000000000000000000000000000000000000811660048301526024820184905284169063095ea7b3906044016020604051808303816000875af1158015612355573d6000803e3d6000fd5b505050506040513d601f19601f820116820180604052508101906123799190612ab2565b506040516335ea6a7560e01b81526001600160a01b0384811660048301526000917f0000000000000000000000000000000000000000000000000000000000000000909116906335ea6a75906024016101e060405180830381865afa1580156123e6573d6000803e3d6000fd5b505050506040513d601f19601f8201168201806040525081019061240a9190612bc5565b610100015160405163095ea7b360e01b81526001600160a01b037f000000000000000000000000000000000000000000000000000000000000000081166004830152602482018690529192509082169063095ea7b3906044016020604051808303816000875af1158015612482573d6000803e3d6000fd5b505050506040513d601f19601f820116820180604052508101906124a69190612ab2565b50604051631a4ca37b60e21b81526001600160a01b038581166004830152602482018590523060448301527f000000000000000000000000000000000000000000000000000000000000000016906369328dec906064016020604051808303816000875af115801561251c573d6000803e3d6000fd5b505050506040513d601f19601f8201168201806040525081019061254091906127d6565b50505b806112da576001600160a01b03831660009081526001602052604081208054849290612570908490612851565b9091555050505050565b604080516001600160a01b038481166024830152604480830185905283518084039091018152606490920183526020820180516001600160e01b031663a9059cbb60e01b17905291516000928392908716916125d69190612b0d565b6000604051808303816000865af19150503d8060008114612613576040519150601f19603f3d011682016040523d82523d6000602084013e612618565b606091505b50915091508180156126425750805115806126425750808060200190518101906126429190612ab2565b6109915760405162461bcd60e51b815260206004820152602d60248201527f5472616e7366657248656c7065723a3a736166655472616e736665723a20747260448201526c185b9cd9995c8819985a5b1959609a1b60648201526084016105e1565b6001600160a01b03811681146126b957600080fd5b50565b600080600080608085870312156126d257600080fd5b84356126dd816126a4565b935060208501356126ed816126a4565b925060408501356126fd816126a4565b9396929550929360600135925050565b6000806000806080858703121561272357600080fd5b843561272e816126a4565b9350602085013561273e816126a4565b93969395505050506040820135916060013590565b6000806040838503121561276657600080fd5b8235612771816126a4565b91506020830135612781816126a4565b809150509250929050565b60006020828403121561279e57600080fd5b81356116ce816126a4565b80516127b4816126a4565b919050565b6000602082840312156127cb57600080fd5b81516116ce816126a4565b6000602082840312156127e857600080fd5b5051919050565b634e487b7160e01b600052601160045260246000fd5b8082028115828204841417610752576107526127ef565b60008261283957634e487b7160e01b600052601260045260246000fd5b500490565b80820180821115610752576107526127ef565b81810381811115610752576107526127ef565b634e487b7160e01b600052604160045260246000fd5b634e487b7160e01b600052603260045260246000fd5b60008151808452602080850194506020840160005b838110156128ca5781516001600160a01b0316875295820195908201906001016128a5565b509495945050505050565b6040815260006128e86040830185612890565b905060018060a01b03831660208301529392505050565b6040516101e0810167ffffffffffffffff8111828210171561292357612923612864565b60405290565b604051601f8201601f1916810167ffffffffffffffff8111828210171561295257612952612864565b604052919050565b600067ffffffffffffffff82111561297457612974612864565b5060051b60200190565b600082601f83011261298f57600080fd5b815160206129a461299f8361295a565b612929565b8083825260208201915060208460051b8701019350868411156129c657600080fd5b602086015b848110156129e257805183529183019183016129cb565b509695505050505050565b60008060408385031215612a0057600080fd5b825167ffffffffffffffff80821115612a1857600080fd5b818501915085601f830112612a2c57600080fd5b81516020612a3c61299f8361295a565b82815260059290921b84018101918181019089841115612a5b57600080fd5b948201945b83861015612a82578551612a73816126a4565b82529482019490820190612a60565b91880151919650909350505080821115612a9b57600080fd5b50612aa88582860161297e565b9150509250929050565b600060208284031215612ac457600080fd5b815180151581146116ce57600080fd5b608081526000612ae76080830187612890565b6020830195909552506001600160a01b0392831660408201529116606090910152919050565b6000825160005b81811015612b2e5760208186018101518583015201612b14565b506000920191825250919050565b600060208284031215612b4e57600080fd5b6040516020810181811067ffffffffffffffff82111715612b7157612b71612864565b6040529151825250919050565b80516fffffffffffffffffffffffffffffffff811681146127b457600080fd5b805164ffffffffff811681146127b457600080fd5b805161ffff811681146127b457600080fd5b60006101e08284031215612bd857600080fd5b612be06128ff565b612bea8484612b3c565b8152612bf860208401612b7e565b6020820152612c0960408401612b7e565b6040820152612c1a60608401612b7e565b6060820152612c2b60808401612b7e565b6080820152612c3c60a08401612b7e565b60a0820152612c4d60c08401612b9e565b60c0820152612c5e60e08401612bb3565b60e0820152610100612c718185016127a9565b90820152610120612c838482016127a9565b90820152610140612c958482016127a9565b90820152610160612ca78482016127a9565b90820152610180612cb9848201612b7e565b908201526101a0612ccb848201612b7e565b908201526101c0612cdd848201612b7e565b90820152939250505056fea264697066735822122074bab54881e976ca95bd5093d4dd72a145d87c414d97e6bb8a67282842cf31c364736f6c63430008180033"
}