{
  "address": "0x2b5ccE36f5F999865B7fdfc9565355aea063E04F",
  "abi": [
    {
      "inputs": [],
      "stateMutability": "nonpayable",
      "type": "constructor"
    },
    {
      "inputs": [
        {
          "internalType": "address",
          "name": "user",
          "type": "address"
        },
        {
          "internalType": "address",
          "name": "token",
          "type": "address"
        },
        {
          "internalType": "contract IUniXBank",
          "name": "unixBank",
          "type": "address"
        }
      ],
      "name": "getUserInterest",
      "outputs": [
        {
          "internalType": "uint256",
          "name": "interest",
          "type": "uint256"
        }
      ],
      "stateMutability": "nonpayable",
      "type": "function"
    },
    {
      "inputs": [
        {
          "internalType": "address",
          "name": "user",
          "type": "address"
        },
        {
          "internalType": "address",
          "name": "token",
          "type": "address"
        },
        {
          "internalType": "contract IAaveV3RewardController",
          "name": "rewardController",
          "type": "address"
        },
        {
          "internalType": "contract IAaveV3Pool",
          "name": "pool",
          "type": "address"
        },
        {
          "internalType": "contract IUniXBank",
          "name": "unixBank",
          "type": "address"
        }
      ],
      "name": "getUserRewards",
      "outputs": [
        {
          "internalType": "address[]",
          "name": "rewardsList",
          "type": "address[]"
        },
        {
          "internalType": "uint256[]",
          "name": "rewards",
          "type": "uint256[]"
        }
      ],
      "stateMutability": "nonpayable",
      "type": "function"
    }
  ],
  "transactionHash": "0x3bbfcadacf19ec2b5e5c3e7f0f5dff35d90a9ffd4836e268c164072a208d4d5e",
  "args": [],
  "numDeployments": 1,
  "solcInputHash": "09cdc1adaac4c22c65febb266c6e2b54",
  "bytecode": "0x608060405234801561001057600080fd5b50610b04806100206000396000f3fe608060405234801561001057600080fd5b50600436106100365760003560e01c80634e9fb7911461003b5780636830ba3e14610061575b600080fd5b61004e610049366004610571565b610082565b6040519081526020015b60405180910390f35b61007461006f3660046105bc565b6101db565b604051610058929190610672565b6040516370a0823160e01b81526001600160a01b03848116600483015260009182918516906370a0823190602401602060405180830381865afa1580156100cd573d6000803e3d6000fd5b505050506040513d601f19601f820116820180604052508101906100f191906106c9565b6040516317486f8d60e31b81526001600160a01b03878116600483015286811660248301529192509084169063ba437c6890604401600060405180830381600087803b15801561014057600080fd5b505af1158015610154573d6000803e3d6000fd5b50506040516370a0823160e01b81526001600160a01b03888116600483015260009350871691506370a0823190602401602060405180830381865afa1580156101a1573d6000803e3d6000fd5b505050506040513d601f19601f820116820180604052508101906101c591906106c9565b90506101d182826106e2565b9695505050505050565b604080516001808252818301909252606091829160009160208083019080368337019050506040516335ea6a7560e01b81526001600160a01b038981166004830152919250908616906335ea6a75906024016101e060405180830381865afa15801561024b573d6000803e3d6000fd5b505050506040513d601f19601f8201168201806040525081019061026f9190610813565b61010001518160008151811061028757610287610936565b6001600160a01b039283166020918202929092010152604051634c0369c360e01b815290871690634c0369c3906102c49084908c9060040161094c565b600060405180830381865afa1580156102e1573d6000803e3d6000fd5b505050506040513d6000823e601f3d908101601f191682016040526103099190810190610a09565b50805190935067ffffffffffffffff81111561032757610327610709565b604051908082528060200260200182016040528015610350578160200160208202803683370190505b50915060005b835181101561040c5783818151811061037157610371610936565b60209081029190910101516040516370a0823160e01b81526001600160a01b038b81166004830152909116906370a0823190602401602060405180830381865afa1580156103c3573d6000803e3d6000fd5b505050506040513d601f19601f820116820180604052508101906103e791906106c9565b8382815181106103f9576103f9610936565b6020908102919091010152600101610356565b506040516324a9e3c160e11b81526001600160a01b0389811660048301528881166024830152851690634953c78290604401600060405180830381600087803b15801561045857600080fd5b505af115801561046c573d6000803e3d6000fd5b5050505060005b835181101561054d5782818151811061048e5761048e610936565b60200260200101518482815181106104a8576104a8610936565b60209081029190910101516040516370a0823160e01b81526001600160a01b038c81166004830152909116906370a0823190602401602060405180830381865afa1580156104fa573d6000803e3d6000fd5b505050506040513d601f19601f8201168201806040525081019061051e91906106c9565b61052891906106e2565b83828151811061053a5761053a610936565b6020908102919091010152600101610473565b50509550959350505050565b6001600160a01b038116811461056e57600080fd5b50565b60008060006060848603121561058657600080fd5b833561059181610559565b925060208401356105a181610559565b915060408401356105b181610559565b809150509250925092565b600080600080600060a086880312156105d457600080fd5b85356105df81610559565b945060208601356105ef81610559565b935060408601356105ff81610559565b9250606086013561060f81610559565b9150608086013561061f81610559565b809150509295509295909350565b60008151808452602080850194506020840160005b838110156106675781516001600160a01b031687529582019590820190600101610642565b509495945050505050565b604081526000610685604083018561062d565b82810360208481019190915284518083528582019282019060005b818110156106bc578451835293830193918301916001016106a0565b5090979650505050505050565b6000602082840312156106db57600080fd5b5051919050565b8181038181111561070357634e487b7160e01b600052601160045260246000fd5b92915050565b634e487b7160e01b600052604160045260246000fd5b6040516101e0810167ffffffffffffffff8111828210171561074357610743610709565b60405290565b604051601f8201601f1916810167ffffffffffffffff8111828210171561077257610772610709565b604052919050565b60006020828403121561078c57600080fd5b6040516020810181811067ffffffffffffffff821117156107af576107af610709565b6040529151825250919050565b80516fffffffffffffffffffffffffffffffff811681146107dc57600080fd5b919050565b805164ffffffffff811681146107dc57600080fd5b805161ffff811681146107dc57600080fd5b80516107dc81610559565b60006101e0828403121561082657600080fd5b61082e61071f565b610838848461077a565b8152610846602084016107bc565b6020820152610857604084016107bc565b6040820152610868606084016107bc565b6060820152610879608084016107bc565b608082015261088a60a084016107bc565b60a082015261089b60c084016107e1565b60c08201526108ac60e084016107f6565b60e08201526101006108bf818501610808565b908201526101206108d1848201610808565b908201526101406108e3848201610808565b908201526101606108f5848201610808565b908201526101806109078482016107bc565b908201526101a06109198482016107bc565b908201526101c061092b8482016107bc565b908201529392505050565b634e487b7160e01b600052603260045260246000fd5b60408152600061095f604083018561062d565b905060018060a01b03831660208301529392505050565b600067ffffffffffffffff82111561099057610990610709565b5060051b60200190565b600082601f8301126109ab57600080fd5b815160206109c06109bb83610976565b610749565b8083825260208201915060208460051b8701019350868411156109e257600080fd5b602086015b848110156109fe57805183529183019183016109e7565b509695505050505050565b60008060408385031215610a1c57600080fd5b825167ffffffffffffffff80821115610a3457600080fd5b818501915085601f830112610a4857600080fd5b81516020610a586109bb83610976565b82815260059290921b84018101918181019089841115610a7757600080fd5b948201945b83861015610a9e578551610a8f81610559565b82529482019490820190610a7c565b91880151919650909350505080821115610ab757600080fd5b50610ac48582860161099a565b915050925092905056fea26469706673582212203c6d1db29de34a98f684ba64e1083841b90efad045f4afec21610c0aefa91e6064736f6c63430008180033"
}